{
  "_format": "hh-sol-artifact-1",
  "contractName": "Wrapper",
  "sourceName": "contracts/Wrapper.sol",
  "abi": [
    {
      "inputs": [
        {
          "internalType": "address",
          "name": "_zkp2p",
          "type": "address"
        },
        {
          "internalType": "address",
          "name": "_usdc",
          "type": "address"
        },
        {
          "internalType": "address",
          "name": "_admin",
          "type": "address"
        }
      ],
      "stateMutability": "nonpayable",
      "type": "constructor"
    },
    {
      "anonymous": false,
      "inputs": [
        {
          "indexed": true,
          "internalType": "address",
          "name": "by",
          "type": "address"
        },
        {
          "indexed": true,
          "internalType": "uint256",
          "name": "depositId",
          "type": "uint256"
        },
        {
          "indexed": true,
          "internalType": "bytes32",
          "name": "intentHash",
          "type": "bytes32"
        }
      ],
      "name": "IntentSignaled",
      "type": "event"
    },
    {
      "anonymous": false,
      "inputs": [
        {
          "indexed": true,
          "internalType": "address",
          "name": "previousOwner",
          "type": "address"
        },
        {
          "indexed": true,
          "internalType": "address",
          "name": "newOwner",
          "type": "address"
        }
      ],
      "name": "OwnershipTransferred",
      "type": "event"
    },
    {
      "inputs": [
        {
          "internalType": "uint256",
          "name": "_amount",
          "type": "uint256"
        }
      ],
      "name": "calculateAmountOnramped",
      "outputs": [
        {
          "internalType": "uint256",
          "name": "",
          "type": "uint256"
        }
      ],
      "stateMutability": "nonpayable",
      "type": "function"
    },
    {
      "inputs": [
        {
          "internalType": "uint256",
          "name": "_depositId",
          "type": "uint256"
        }
      ],
      "name": "cancelDeposit",
      "outputs": [],
      "stateMutability": "nonpayable",
      "type": "function"
    },
    {
      "inputs": [
        {
          "internalType": "bytes32",
          "name": "_intentHash",
          "type": "bytes32"
        }
      ],
      "name": "cancelIntent",
      "outputs": [],
      "stateMutability": "nonpayable",
      "type": "function"
    },
    {
      "inputs": [
        {
          "internalType": "uint256",
          "name": "_amount",
          "type": "uint256"
        },
        {
          "internalType": "bytes32",
          "name": "_intentHash",
          "type": "bytes32"
        },
        {
          "internalType": "bytes",
          "name": "_paymentProof",
          "type": "bytes"
        },
        {
          "components": [
            {
              "internalType": "address[]",
              "name": "verifiers",
              "type": "address[]"
            },
            {
              "components": [
                {
                  "internalType": "address",
                  "name": "intentGatingService",
                  "type": "address"
                },
                {
                  "internalType": "string",
                  "name": "payeeDetails",
                  "type": "string"
                },
                {
                  "internalType": "bytes",
                  "name": "data",
                  "type": "bytes"
                }
              ],
              "internalType": "struct IEscrow.DepositVerifierData[]",
              "name": "data",
              "type": "tuple[]"
            },
            {
              "components": [
                {
                  "internalType": "bytes32",
                  "name": "code",
                  "type": "bytes32"
                },
                {
                  "internalType": "uint256",
                  "name": "conversionRate",
                  "type": "uint256"
                }
              ],
              "internalType": "struct IEscrow.Currency[][]",
              "name": "currencies",
              "type": "tuple[][]"
            }
          ],
          "internalType": "struct Wrapper.OfframpIntent",
          "name": "_offrampIntent",
          "type": "tuple"
        }
      ],
      "name": "fulfillAndOfframp",
      "outputs": [],
      "stateMutability": "nonpayable",
      "type": "function"
    },
    {
      "inputs": [],
      "name": "owner",
      "outputs": [
        {
          "internalType": "address",
          "name": "",
          "type": "address"
        }
      ],
      "stateMutability": "view",
      "type": "function"
    },
    {
      "inputs": [
        {
          "internalType": "address",
          "name": "_to",
          "type": "address"
        }
      ],
      "name": "reclaimFunds",
      "outputs": [],
      "stateMutability": "nonpayable",
      "type": "function"
    },
    {
      "inputs": [],
      "name": "renounceOwnership",
      "outputs": [],
      "stateMutability": "nonpayable",
      "type": "function"
    },
    {
      "inputs": [
        {
          "internalType": "uint256",
          "name": "depositId",
          "type": "uint256"
        },
        {
          "internalType": "uint256",
          "name": "amount",
          "type": "uint256"
        },
        {
          "internalType": "address",
          "name": "verifier",
          "type": "address"
        },
        {
          "internalType": "bytes32",
          "name": "fiatCurrency",
          "type": "bytes32"
        },
        {
          "internalType": "bytes",
          "name": "gatingServiceSignature",
          "type": "bytes"
        }
      ],
      "name": "signalIntent",
      "outputs": [
        {
          "internalType": "bytes32",
          "name": "intentHash",
          "type": "bytes32"
        }
      ],
      "stateMutability": "nonpayable",
      "type": "function"
    },
    {
      "inputs": [
        {
          "internalType": "address",
          "name": "newOwner",
          "type": "address"
        }
      ],
      "name": "transferOwnership",
      "outputs": [],
      "stateMutability": "nonpayable",
      "type": "function"
    },
    {
      "inputs": [],
      "name": "usdc",
      "outputs": [
        {
          "internalType": "address",
          "name": "",
          "type": "address"
        }
      ],
      "stateMutability": "view",
      "type": "function"
    },
    {
      "inputs": [],
      "name": "zkp2p",
      "outputs": [
        {
          "internalType": "address",
          "name": "",
          "type": "address"
        }
      ],
      "stateMutability": "view",
      "type": "function"
    }
  ],
  "bytecode": "0x60c06040523480156200001157600080fd5b50604051620011f0380380620011f08339810160408190526200003491620001b4565b6200003f3362000066565b6001600160a01b03808416608052821660a0526200005d81620000b6565b505050620001fe565b600080546001600160a01b038381166001600160a01b0319831681178455604051919092169283917f8be0079c531659141344cd1fd0a4f28419497f9722a3daafe3b4186f6b6457e09190a35050565b620000c062000139565b6001600160a01b0381166200012b5760405162461bcd60e51b815260206004820152602660248201527f4f776e61626c653a206e6577206f776e657220697320746865207a65726f206160448201526564647265737360d01b60648201526084015b60405180910390fd5b620001368162000066565b50565b6000546001600160a01b03163314620001955760405162461bcd60e51b815260206004820181905260248201527f4f776e61626c653a2063616c6c6572206973206e6f7420746865206f776e6572604482015260640162000122565b565b80516001600160a01b0381168114620001af57600080fd5b919050565b600080600060608486031215620001ca57600080fd5b620001d58462000197565b9250620001e56020850162000197565b9150620001f56040850162000197565b90509250925092565b60805160a051610f80620002706000396000818160ec015281816104bb015281816105800152818161071f015261080501526000818161015b015281816101e101528181610315015281816103fc01528181610489015281816105590152818161064201526106c80152610f806000f3fe608060405234801561001057600080fd5b50600436106100a95760003560e01c806372fada5c1161007157806372fada5c1461014357806384b6a788146101565780638da5cb5b1461017d578063d55f960d1461018e578063dcf0e82d146101a1578063f2fde38b146101b457600080fd5b8063164322ae146100ae57806337512512146100d45780633e413bee146100e7578063715018a61461012657806372cfd03214610130575b600080fd5b6100c16100bc3660046109ff565b6101c7565b6040519081526020015b60405180910390f35b6100c16100e2366004610a70565b610310565b61010e7f000000000000000000000000000000000000000000000000000000000000000081565b6040516001600160a01b0390911681526020016100cb565b61012e6103d1565b005b61012e61013e366004610a89565b6103e5565b61012e610151366004610a70565b610624565b61010e7f000000000000000000000000000000000000000000000000000000000000000081565b6000546001600160a01b031661010e565b61012e61019c366004610a70565b6106aa565b61012e6101af366004610b0d565b6106ff565b61012e6101c2366004610b0d565b610877565b604051630571f9b160e31b81526000906001600160a01b037f00000000000000000000000000000000000000000000000000000000000000001690632b8fcd8890610222908a908a9030908b908b908b908b90600401610b58565b600060405180830381600087803b15801561023c57600080fd5b505af1158015610250573d6000803e3d6000fd5b50506040516bffffffffffffffffffffffff1930606090811b8216602084015289901b166034820152604881018a905242606882015260009250608801905060408051601f19818403018152919052805160209091012090506102d37f30644e72e131a029b85045b68181585d2833e84879b9709143e1f593f000000182610bbc565b6040519092508290899033907f91dd7169eab1fe46b7925793f8a16f80f3efbe4dd7d7787a08c3da67948d2fb790600090a4509695505050505050565b6000807f00000000000000000000000000000000000000000000000000000000000000006001600160a01b031663238c84946040518163ffffffff1660e01b8152600401602060405180830381865afa158015610371573d6000803e3d6000fd5b505050506040513d601f19601f820116820180604052508101906103959190610bd0565b9050600081156103bf57670de0b6b3a76400006103b28386610bff565b6103bc9190610c1c565b90505b6103c98185610c30565b949350505050565b6103d96108f0565b6103e3600061094a565b565b604051631715a1cb60e11b81526001600160a01b037f00000000000000000000000000000000000000000000000000000000000000001690632e2b43969061043590869086908990600401610c43565b600060405180830381600087803b15801561044f57600080fd5b505af1158015610463573d6000803e3d6000fd5b50505050600061047286610310565b60405163095ea7b360e01b81526001600160a01b037f000000000000000000000000000000000000000000000000000000000000000081166004830152602482018390529192507f00000000000000000000000000000000000000000000000000000000000000009091169063095ea7b3906044016020604051808303816000875af1158015610506573d6000803e3d6000fd5b505050506040513d601f19601f8201168201806040525081019061052a9190610c67565b50600060405180604001604052806001846105459190610c30565b815260200183905290506001600160a01b037f00000000000000000000000000000000000000000000000000000000000000001663b06f7f8f7f000000000000000000000000000000000000000000000000000000000000000084846105ab8880610c89565b6105b860208b018b610c89565b6105c560408d018d610c89565b6040518a63ffffffff1660e01b81526004016105e999989796959493929190610eaa565b600060405180830381600087803b15801561060357600080fd5b505af1158015610617573d6000803e3d6000fd5b5050505050505050505050565b61062c6108f0565b6040516319944d2360e11b8152600481018290527f00000000000000000000000000000000000000000000000000000000000000006001600160a01b0316906333289a46906024015b600060405180830381600087803b15801561068f57600080fd5b505af11580156106a3573d6000803e3d6000fd5b5050505050565b6106b26108f0565b60405163d55f960d60e01b8152600481018290527f00000000000000000000000000000000000000000000000000000000000000006001600160a01b03169063d55f960d90602401610675565b6107076108f0565b6040516370a0823160e01b81523060048201526000907f00000000000000000000000000000000000000000000000000000000000000006001600160a01b0316906370a0823190602401602060405180830381865afa15801561076e573d6000803e3d6000fd5b505050506040513d601f19601f820116820180604052508101906107929190610bd0565b9050600081116107df5760405162461bcd60e51b81526020600482015260136024820152724e6f2066756e647320746f207265636c61696d60681b60448201526064015b60405180910390fd5b60405163a9059cbb60e01b81526001600160a01b038381166004830152602482018390527f0000000000000000000000000000000000000000000000000000000000000000169063a9059cbb906044016020604051808303816000875af115801561084e573d6000803e3d6000fd5b505050506040513d601f19601f820116820180604052508101906108729190610c67565b505050565b61087f6108f0565b6001600160a01b0381166108e45760405162461bcd60e51b815260206004820152602660248201527f4f776e61626c653a206e6577206f776e657220697320746865207a65726f206160448201526564647265737360d01b60648201526084016107d6565b6108ed8161094a565b50565b6000546001600160a01b031633146103e35760405162461bcd60e51b815260206004820181905260248201527f4f776e61626c653a2063616c6c6572206973206e6f7420746865206f776e657260448201526064016107d6565b600080546001600160a01b038381166001600160a01b0319831681178455604051919092169283917f8be0079c531659141344cd1fd0a4f28419497f9722a3daafe3b4186f6b6457e09190a35050565b80356001600160a01b03811681146109b157600080fd5b919050565b60008083601f8401126109c857600080fd5b50813567ffffffffffffffff8111156109e057600080fd5b6020830191508360208285010111156109f857600080fd5b9250929050565b60008060008060008060a08789031215610a1857600080fd5b8635955060208701359450610a2f6040880161099a565b935060608701359250608087013567ffffffffffffffff811115610a5257600080fd5b610a5e89828a016109b6565b979a9699509497509295939492505050565b600060208284031215610a8257600080fd5b5035919050565b600080600080600060808688031215610aa157600080fd5b8535945060208601359350604086013567ffffffffffffffff80821115610ac757600080fd5b610ad389838a016109b6565b90955093506060880135915080821115610aec57600080fd5b50860160608189031215610aff57600080fd5b809150509295509295909350565b600060208284031215610b1f57600080fd5b610b288261099a565b9392505050565b81835281816020850137506000828201602090810191909152601f909101601f19169091010190565b878152602081018790526001600160a01b038681166040830152851660608201526080810184905260c060a08201819052600090610b999083018486610b2f565b9998505050505050505050565b634e487b7160e01b600052601260045260246000fd5b600082610bcb57610bcb610ba6565b500690565b600060208284031215610be257600080fd5b5051919050565b634e487b7160e01b600052601160045260246000fd5b8082028115828204841417610c1657610c16610be9565b92915050565b600082610c2b57610c2b610ba6565b500490565b81810381811115610c1657610c16610be9565b604081526000610c57604083018587610b2f565b9050826020830152949350505050565b600060208284031215610c7957600080fd5b81518015158114610b2857600080fd5b6000808335601e19843603018112610ca057600080fd5b83018035915067ffffffffffffffff821115610cbb57600080fd5b6020019150600581901b36038213156109f857600080fd5b6000808335601e19843603018112610cea57600080fd5b830160208101925035905067ffffffffffffffff811115610d0a57600080fd5b8036038213156109f857600080fd5b81835260006020808501808196508560051b81019150846000805b88811015610dc6578385038a528235605e19893603018112610d54578283fd5b880160606001600160a01b03610d698361099a565b168752610d7888830183610cd3565b828a8a0152610d8a838a018284610b2f565b925050506040610d9c81840184610cd3565b9350888303828a0152610db0838583610b2f565b9d8a019d98505050938701935050600101610d34565b509298975050505050505050565b8183526000602080850194508260005b85811015610e0a5781358752828201358388015260409687019690910190600101610de4565b509495945050505050565b81835260006020808501808196508560051b810191508460005b87811015610e9d5782840389528135601e19883603018112610e5057600080fd5b8701858101903567ffffffffffffffff811115610e6c57600080fd5b8060061b3603821315610e7e57600080fd5b610e89868284610dd4565b9a87019a9550505090840190600101610e2f565b5091979650505050505050565b6001600160a01b038a8116825260208083018b90528951604084015289810151606084015260e060808401819052830188905260009189916101008501845b8b811015610f0e5783610efb8661099a565b1682529382019390820190600101610ee9565b5085810360a0870152610f22818a8c610d19565b935050505082810360c0840152610f3a818587610e15565b9c9b50505050505050505050505056fea2646970667358221220a499b19d7610c3a3fe9fbe2dd029d4114ca9bc63a8d20c117ee2a1e4ad9d79d864736f6c63430008120033",
  "linkReferences": {},
  "deployedLinkReferences": {}
}