{
  "_format": "hh-sol-artifact-1",
  "contractName": "Wrapper",
  "sourceName": "contracts/Wrapper.sol",
  "abi": [
    {
      "inputs": [
        {
          "internalType": "address",
          "name": "_zkp2p",
          "type": "address"
        },
        {
          "internalType": "address",
          "name": "_usdc",
          "type": "address"
        }
      ],
      "stateMutability": "nonpayable",
      "type": "constructor"
    },
    {
      "anonymous": false,
      "inputs": [
        {
          "indexed": true,
          "internalType": "address",
          "name": "by",
          "type": "address"
        },
        {
          "indexed": true,
          "internalType": "uint256",
          "name": "depositId",
          "type": "uint256"
        },
        {
          "indexed": true,
          "internalType": "bytes32",
          "name": "intentHash",
          "type": "bytes32"
        }
      ],
      "name": "IntentSignaled",
      "type": "event"
    },
    {
      "inputs": [
        {
          "internalType": "uint256",
          "name": "_amount",
          "type": "uint256"
        }
      ],
      "name": "calculateAmountOnramped",
      "outputs": [
        {
          "internalType": "uint256",
          "name": "",
          "type": "uint256"
        }
      ],
      "stateMutability": "nonpayable",
      "type": "function"
    },
    {
      "inputs": [
        {
          "internalType": "uint256",
          "name": "_amount",
          "type": "uint256"
        },
        {
          "internalType": "bytes32",
          "name": "_intentHash",
          "type": "bytes32"
        },
        {
          "internalType": "bytes",
          "name": "_paymentProof",
          "type": "bytes"
        },
        {
          "components": [
            {
              "internalType": "address[]",
              "name": "verifiers",
              "type": "address[]"
            },
            {
              "components": [
                {
                  "internalType": "address",
                  "name": "intentGatingService",
                  "type": "address"
                },
                {
                  "internalType": "string",
                  "name": "payeeDetails",
                  "type": "string"
                },
                {
                  "internalType": "bytes",
                  "name": "data",
                  "type": "bytes"
                }
              ],
              "internalType": "struct IEscrow.DepositVerifierData[]",
              "name": "data",
              "type": "tuple[]"
            },
            {
              "components": [
                {
                  "internalType": "bytes32",
                  "name": "code",
                  "type": "bytes32"
                },
                {
                  "internalType": "uint256",
                  "name": "conversionRate",
                  "type": "uint256"
                }
              ],
              "internalType": "struct IEscrow.Currency[][]",
              "name": "currencies",
              "type": "tuple[][]"
            }
          ],
          "internalType": "struct Wrapper.OfframpIntent",
          "name": "_offrampIntent",
          "type": "tuple"
        }
      ],
      "name": "fulfillAndOfframp",
      "outputs": [],
      "stateMutability": "nonpayable",
      "type": "function"
    },
    {
      "inputs": [
        {
          "internalType": "uint256",
          "name": "depositId",
          "type": "uint256"
        },
        {
          "internalType": "uint256",
          "name": "amount",
          "type": "uint256"
        },
        {
          "internalType": "address",
          "name": "verifier",
          "type": "address"
        },
        {
          "internalType": "bytes32",
          "name": "fiatCurrency",
          "type": "bytes32"
        },
        {
          "internalType": "bytes",
          "name": "gatingServiceSignature",
          "type": "bytes"
        }
      ],
      "name": "signalIntent",
      "outputs": [
        {
          "internalType": "bytes32",
          "name": "intentHash",
          "type": "bytes32"
        }
      ],
      "stateMutability": "nonpayable",
      "type": "function"
    },
    {
      "inputs": [],
      "name": "usdc",
      "outputs": [
        {
          "internalType": "address",
          "name": "",
          "type": "address"
        }
      ],
      "stateMutability": "view",
      "type": "function"
    },
    {
      "inputs": [],
      "name": "zkp2p",
      "outputs": [
        {
          "internalType": "address",
          "name": "",
          "type": "address"
        }
      ],
      "stateMutability": "view",
      "type": "function"
    }
  ],
  "bytecode": "0x60c060405234801561001057600080fd5b50604051610c00380380610c0083398101604081905261002f91610062565b6001600160a01b039182166080521660a052610095565b80516001600160a01b038116811461005d57600080fd5b919050565b6000806040838503121561007557600080fd5b61007e83610046565b915061008c60208401610046565b90509250929050565b60805160a051610b176100e960003960008181609a015281816103f001526104a801526000818160ee0152818161012a0152818161025e01528181610331015281816103be01526104810152610b176000f3fe608060405234801561001057600080fd5b50600436106100575760003560e01c8063164322ae1461005c57806337512512146100825780633e413bee1461009557806372cfd032146100d457806384b6a788146100e9575b600080fd5b61006f61006a3660046105b1565b610110565b6040519081526020015b60405180910390f35b61006f610090366004610622565b610259565b6100bc7f000000000000000000000000000000000000000000000000000000000000000081565b6040516001600160a01b039091168152602001610079565b6100e76100e236600461063b565b61031a565b005b6100bc7f000000000000000000000000000000000000000000000000000000000000000081565b604051630571f9b160e31b81526000906001600160a01b037f00000000000000000000000000000000000000000000000000000000000000001690632b8fcd889061016b908a908a9030908b908b908b908b906004016106e8565b600060405180830381600087803b15801561018557600080fd5b505af1158015610199573d6000803e3d6000fd5b50506040516bffffffffffffffffffffffff1930606090811b8216602084015289901b166034820152604881018a905242606882015260009250608801905060408051601f198184030181529190528051602090910120905061021c7f30644e72e131a029b85045b68181585d2833e84879b9709143e1f593f00000018261074c565b6040519092508290899033907f91dd7169eab1fe46b7925793f8a16f80f3efbe4dd7d7787a08c3da67948d2fb790600090a4509695505050505050565b6000807f00000000000000000000000000000000000000000000000000000000000000006001600160a01b031663238c84946040518163ffffffff1660e01b8152600401602060405180830381865afa1580156102ba573d6000803e3d6000fd5b505050506040513d601f19601f820116820180604052508101906102de9190610760565b90506000811561030857670de0b6b3a76400006102fb838661078f565b61030591906107ac565b90505b61031281856107c0565b949350505050565b604051631715a1cb60e11b81526001600160a01b037f00000000000000000000000000000000000000000000000000000000000000001690632e2b43969061036a908690869089906004016107d3565b600060405180830381600087803b15801561038457600080fd5b505af1158015610398573d6000803e3d6000fd5b5050505060006103a786610259565b60405163095ea7b360e01b81526001600160a01b037f000000000000000000000000000000000000000000000000000000000000000081166004830152602482018390529192507f00000000000000000000000000000000000000000000000000000000000000009091169063095ea7b3906044016020604051808303816000875af115801561043b573d6000803e3d6000fd5b505050506040513d601f19601f8201168201806040525081019061045f91906107f7565b5060408051808201909152629896808152602081018290526001600160a01b037f00000000000000000000000000000000000000000000000000000000000000001663b06f7f8f7f000000000000000000000000000000000000000000000000000000000000000084846104d38880610820565b6104e060208b018b610820565b6104ed60408d018d610820565b6040518a63ffffffff1660e01b815260040161051199989796959493929190610a41565b600060405180830381600087803b15801561052b57600080fd5b505af115801561053f573d6000803e3d6000fd5b5050505050505050505050565b80356001600160a01b038116811461056357600080fd5b919050565b60008083601f84011261057a57600080fd5b50813567ffffffffffffffff81111561059257600080fd5b6020830191508360208285010111156105aa57600080fd5b9250929050565b60008060008060008060a087890312156105ca57600080fd5b86359550602087013594506105e16040880161054c565b935060608701359250608087013567ffffffffffffffff81111561060457600080fd5b61061089828a01610568565b979a9699509497509295939492505050565b60006020828403121561063457600080fd5b5035919050565b60008060008060006080868803121561065357600080fd5b8535945060208601359350604086013567ffffffffffffffff8082111561067957600080fd5b61068589838a01610568565b9095509350606088013591508082111561069e57600080fd5b508601606081890312156106b157600080fd5b809150509295509295909350565b81835281816020850137506000828201602090810191909152601f909101601f19169091010190565b878152602081018790526001600160a01b038681166040830152851660608201526080810184905260c060a0820181905260009061072990830184866106bf565b9998505050505050505050565b634e487b7160e01b600052601260045260246000fd5b60008261075b5761075b610736565b500690565b60006020828403121561077257600080fd5b5051919050565b634e487b7160e01b600052601160045260246000fd5b80820281158282048414176107a6576107a6610779565b92915050565b6000826107bb576107bb610736565b500490565b818103818111156107a6576107a6610779565b6040815260006107e76040830185876106bf565b9050826020830152949350505050565b60006020828403121561080957600080fd5b8151801515811461081957600080fd5b9392505050565b6000808335601e1984360301811261083757600080fd5b83018035915067ffffffffffffffff82111561085257600080fd5b6020019150600581901b36038213156105aa57600080fd5b6000808335601e1984360301811261088157600080fd5b830160208101925035905067ffffffffffffffff8111156108a157600080fd5b8036038213156105aa57600080fd5b81835260006020808501808196508560051b81019150846000805b8881101561095d578385038a528235605e198936030181126108eb578283fd5b880160606001600160a01b036109008361054c565b16875261090f8883018361086a565b828a8a0152610921838a0182846106bf565b9250505060406109338184018461086a565b9350888303828a01526109478385836106bf565b9d8a019d985050509387019350506001016108cb565b509298975050505050505050565b8183526000602080850194508260005b858110156109a1578135875282820135838801526040968701969091019060010161097b565b509495945050505050565b81835260006020808501808196508560051b810191508460005b87811015610a345782840389528135601e198836030181126109e757600080fd5b8701858101903567ffffffffffffffff811115610a0357600080fd5b8060061b3603821315610a1557600080fd5b610a2086828461096b565b9a87019a95505050908401906001016109c6565b5091979650505050505050565b6001600160a01b038a8116825260208083018b90528951604084015289810151606084015260e060808401819052830188905260009189916101008501845b8b811015610aa55783610a928661054c565b1682529382019390820190600101610a80565b5085810360a0870152610ab9818a8c6108b0565b935050505082810360c0840152610ad18185876109ac565b9c9b50505050505050505050505056fea2646970667358221220fa9ccab050af657f558de5e124f19fb3f6a65120ed0dca688bb3edf746fbf3bd64736f6c63430008120033",
  "linkReferences": {},
  "deployedLinkReferences": {}
}